:100000000C9462000C948A000C948A000C948A0070
:100010000C948A000C948A000C948A000C948A0038
:100020000C948A000C948A000C948A000C948A0028
:100030000C948A000C948A000C948A000C948A0018
:100040000C9439040C948A000C948A000C948A0055
:100050000C948A000C948A000C948A000C948A00F8
:100060000C948A000C948A000000000024002700F1
:100070002A0000000000250028002B0000000000DE
:1000800023002600290004040404040404040202DA
:100090000202020203030303030301020408102007
:1000A0004080010204081020010204081020000012
:1000B0000008000201000003040700000000000027
:1000C00000003F0711241FBECFEFD8E0DEBFCDBF39
:1000D00021E0A0E6B1E001C01D92A53FB207E1F723
:1000E00011E0A0E0B1E0EAE5F4E102C005900D9274
:1000F000A036B107D9F710E0C2E6D0E004C02197DE
:10010000FE010E943308C136D107C9F70E9483045B
:100110000C942B0A0C94000096E0899FD0011124C6
:10012000A659BE4F90967C936E935F9791E09196FF
:100130009C939197E091D701F091D8019091D601CD
:10014000992339F0309751F0811108C080918601D0
:100150000994309719F05C968C91FACF0895CF925C
:10016000DF92EF92FF920F931F9396E0899FF00129
:100170001124E659FE4F11A2278D30A121303105FF
:1001800051F178F02230310509F451C023303105A6
:1001900009F452C01F910F91FF90EF90DF90CF9024
:1001A00008956623B9F361E070E00E948C002FB7D8
:1001B000F8948091660190916701A0916801B091D7
:1001C00069012FBF8093C2019093C301A093C40122
:1001D000B093C501DFCF9FB7F894C0906601D0906F
:1001E0006701E0906801F09069019FBF0091C20132
:1001F0001091C3012091C4013091C501C01AD10AE8
:10020000E20AF30A0091D4011091D50130E020E018
:100210000C151D052E053F0550F462E070E01F919E
:100220000F91FF90EF90DF90CF900C948C006111B4
:10023000B1CF63E070E0F3CF70E060E0F0CF8330E7
:1002400081F028F4813099F08230A9F00895873048
:10025000A9F08830C9F08430B1F4809180008F7D9E
:1002600003C0809180008F7780938000089584B5CB
:100270008F7784BD089584B58F7DFBCF8091B000CA
:100280008F778093B00008958091B0008F7DF9CF73
:10029000CF93DF93282F30E0F901E255FF4F84918F
:1002A000F901E656FF4FD491F901EA57FF4FC49187
:1002B000CC23A1F081110E941F01EC2FF0E0EE0F82
:1002C000FF1FE458FF4FA591B491EC91ED2381E01D
:1002D00090E009F480E0DF91CF91089580E090E014
:1002E000FACF1F93CF93DF93282F30E0F901E25527
:1002F000FF4F8491F901E656FF4FD491F901EA5777
:10030000FF4FC491CC23A9F0162F81110E941F0129
:10031000EC2FF0E0EE0FFF1FEE58FF4FA591B491C8
:100320008FB7F894EC91111108C0D095DE23DC93BF
:100330008FBFDF91CF911F910895DE2BF8CFCF9320
:10034000DF9390E0FC01E656FF4F24918A579F4FC0
:10035000FC0184918823C9F090E0880F991FFC016B
:10036000E859FF4FA591B491FC01EE58FF4FC5919C
:10037000D49161110DC09FB7F8948C912095822380
:100380008C938881282328839FBFDF91CF91089584
:10039000623051F49FB7F8943C91822F809583236B
:1003A0008C93E8812E2BEFCF8FB7F894EC912E2B06
:1003B0002C938FBFEACF3FB7F89480916201909160
:1003C0006301A0916401B091650126B5A89B05C0A9
:1003D0002F3F19F00196A11DB11D3FBFBA2FA92FC4
:1003E000982F8827BC01CD01620F711D811D911DC1
:1003F00042E0660F771F881F991F4A95D1F708952D
:10040000862F642F0C949F01862F642F0C9471010A
:10041000862F0C944801AF92BF92CF92DF92EF9259
:10042000FF920F931F93CF93DF936C017B018B019E
:10043000040F151FEB015E01AE18BF08C017D107EE
:1004400059F06991D601ED91FC910190F081E02D78
:10045000C6010995892B79F7C501DF91CF911F91CD
:100460000F91FF90EF90DF90CF90BF90AF900895E5
:10047000089590E080E008958F929F92AF92BF928E
:100480000F931F93CF93DF93CDB7DEB7A1970FB62E
:10049000F894DEBF0FBECDBF19A2423008F44AE087
:1004A0008E010F5D1F4F842E912CB12CA12CA50124
:1004B00094010E941108E62FB901CA01EA3044F5FF
:1004C000E05DD801EE938D01232B242B252B79F7AA
:1004D00090E080E0109769F0FD0101900020E9F7BD
:1004E0003197AF014A1B5B0BBD0189ED91E00E9482
:1004F0000B02A1960FB6F894DEBF0FBECDBFDF9101
:10050000CF911F910F91BF90AF909F908F900895C2
:10051000E95CD7CFFC0101900020E9F73197AF01EA
:10052000481B590BBC0189ED91E00C940B02CF9351
:10053000DF93EC0160E08E810E94710161E08E81A9
:100540000E94710160E08E810E9471018BE891E050
:100550000197F1F7DF91CF910895CF92DF92EF925B
:10056000FF920F931F93CF93DF936C017C0187E081
:10057000E80EF11CD0E0C0E0062F10E0B8010C2E10
:1005800002C0759567950A94E2F76170F701819151
:100590007F010E9471012196C430D10579F7C6010F
:1005A000DF91CF911F910F91FF90EF90DF90CF904F
:1005B0000C949702CF92DF92EF92FF920F931F93CA
:1005C000CF93DF93EC01F62E642F8C810E94710192
:1005D0008D818F3F19F060E00E9471010F2D10E0B6
:1005E0008F8584FF25C06E0187E0C80ED11CF12CD9
:1005F000E12CB8010E2C02C0759567950A94E2F7BC
:100600006170F60181916F010E947101FFEFEF1A95
:10061000FF0A88E0E816F10461F7CE01DF91CF917F
:100620001F910F91FF90EF90DF90CF900C94970265
:10063000B80184E0759567958A95E1F7CE010E942F
:10064000AD026F2DCE01DF91CF911F910F91FF90E1
:10065000EF90DF90CF900C94AD0240E0682F89EDD1
:1006600091E00C94DA02CF93DF93823029F49091D9
:10067000E80198609093E8018093EC011092ED01FD
:1006800080E48093EE0180E18093EF0180E5809328
:10069000F00161E08091DD010E949F018091DE0107
:1006A0008F3F19F061E00E949F0161E08091DF01BE
:1006B0000E949F01C9EDD1E09E01295D31408091EA
:1006C000E80184FD0BC084E090E0219628173907EB
:1006D00044F461E08E810E949F01EECF88E090E0BB
:1006E000F4CF8BE39DE00197F1F760E08091DD01AD
:1006F0000E94710160E08091DF010E947101809190
:10070000DE018F3F19F060E00E9471018091E801E5
:1007100084FD39C063E089ED91E00E94AD02CBE435
:10072000D6E4CE010197F1F763E089ED91E00E94F4
:10073000AD022197F1F763E089ED91E00E94AD02EF
:1007400083E592E00197F1F762E089ED91E00E9484
:10075000AD028091E80180620E942D0384E08093C5
:10076000E9018CE00E942D0381E00E942D038BE3C0
:100770009FE10197F1F782E08093EA0186E0DF9143
:10078000CF910C942D0380620E942D038BE496E49C
:100790000197F1F78091E80180620E942D0383E5C3
:1007A00092E00197F1F78091E80180620E942D03A9
:1007B000D0CF9091EC01691710F06FEF690FE62F21
:1007C000F0E0E752FE4F9489890F80680C942D0366
:1007D00041E00E94DA0281E090E008950F931F93B8
:1007E000CF93DF93EC0188819981009759F02A819A
:1007F0003B812617370730F081E0DF91CF911F91C1
:100800000F9108958B016F5F7F4F0E945E090097E3
:1008100059F0998388831B830A832C813D81232B84
:1008200059F7FC011082E8CF80E0E7CFCF93DF9348
:10083000EC0170E060E00E94EE03288139818111B3
:100840000FC02115310519F0C9010E94D508198280
:1008500018821D821C821B821A82DF91CF9108951B
:100860001D821C8262E471E0C901DF91CF910C947A
:10087000240A1F920F920FB60F9211242F933F93C9
:100880008F939F93AF93BF9380916601909167017F
:10089000A0916801B09169013091610123E0230FBB
:1008A0002D3758F50196A11DB11D2093610180934C
:1008B000660190936701A0936801B09369018091EC
:1008C000620190916301A0916401B091650101966C
:1008D000A11DB11D8093620190936301A0936401F7
:1008E000B0936501BF91AF919F918F913F912F91EF
:1008F0000F900FBE0F901F90189526E8230F0296B9
:10090000A11DB11DD2CFCF93DF93CDB7DEB728970E
:100910000FB6F894DEBF0FBECDBF789484B5826069
:1009200084BD84B5816084BD85B5826085BD85B593
:10093000816085BD80916E00816080936E00109211
:10094000810080918100826080938100809181008C
:10095000816080938100809180008160809380001D
:100960008091B10084608093B1008091B00081607B
:100970008093B00080917A00846080937A008091A7
:100980007A00826080937A0080917A0081608093FF
:100990007A0080917A00806880937A001092C1007A
:1009A00061E08DE00E949F0161E08CE00E949F0168
:1009B00061E08BE00E949F0182E00E94330381E0AE
:1009C0000E942D038BE39FE10197F1F786E391E00D
:1009D0000E948A0260E085E00E94D903412C512CDC
:1009E0003201439421E02093D6018FB7F8944091CF
:1009F00066015091670160916801709169018FBF34
:100A00008091C6019091C701A091C801B091C90120
:100A1000481B590B6A0B7B0B8091D2019091D3013B
:100A2000B0E0A0E084179507A607B70708F012C149
:100A300010E08091D001181760F4E091CC01F091A2
:100A4000CD01E10FF11D62E080810E949F011F5FD7
:100A5000F0CF312C8091D101381608F061C0E32C21
:100A6000F12CE091CE01F091CF01EE0DFF1D61E080
:100A700080810E949F01E091CE01F091CF01EE0DA7
:100A8000FF1D60E080810E947101D301C201032C2F
:100A900004C0880F991FAA1FBB1F0A94D2F74C01EC
:100AA0006C01C094D094212C8091D001281608F5B7
:100AB000022D10E0E091CC01F091CD01E00FF11F8B
:100AC00080810E9448010C5F1F4F000F111FF80129
:100AD000E659FE4F892B41F480819181882999291B
:100AE000918380832394E0CF808191818C219D210B
:100AF000F7CFE091CE01F091CF01EE0DFF1D61E047
:100B000080810E9471018091CE019091CF01E80E09
:100B1000F91E60E0F70180810E949F0133949ACF13
:100B20000AE611E07801F701878D90A1892B31F455
:100B3000148E8FEF9FEF968F858F11A296E0E90EAE
:100B4000F11CE6EAEE16E1E0FE0669F7912C8091D1
:100B5000D001981608F053C0812CC92CD12CCC0C94
:100B6000DD1CC6018E589E4F6C012091D10182166A
:100B700008F043C0F60160817181082C02C07695AF
:100B800067950A94E2F7929E90011124280D311D79
:100B9000EAE6F1E080E0458D568D2417350709F42B
:100BA0006CC18F5F36968A30B1F760FF24C0EAE6E9
:100BB000F1E090E080E0448D411118C0E091CA015D
:100BC000F091CB01E20FF31F408156E0589FF001F6
:100BD000599FF00D1124E659FE4F448F368F258F13
:100BE00010A2178E61E00E94AF0005C001963696F4
:100BF0008A30910501F78394B8CF9394A8CF80E011
:100C0000F80191A19111892F0A5F1F4FE016F1069B
:100C1000B9F79FB7F89440916601509167016091D0
:100C20006801709169019FBF4093C6015093C7014D
:100C30006093C8017093C901882361F080918B0192
:100C4000882341F08091890190918A011091860159
:100C5000019719F01092D60110E0109360011A82EA
:100C600019821C821B821E821D8270E060E0CE0110
:100C700001960E94EE0329813A81811192C02115CB
:100C8000310519F0C9010E94D5081A8219821E8205
:100C90001D821C821B82112391F1812F012E000CD9
:100CA000990BC0970A9708F084C01F8318860D819E
:100CB0001E810F5F1F4FB801CE0101960E94EE0307
:100CC000882369F029813A818D819E81BE01695F07
:100CD0007F4F820F931F0E94240A1E830D8360E0C2
:100CE00085E00E94D9038DE391E00E948A024D8144
:100CF0005E8169817A8189ED91E00E940B02809189
:100D00001801909119019C012951310926303105B2
:100D100008F093C060E08DE00E94710161E08CE01A
:100D20000E94710160E08BE00E94710183E491E018
:100D30000E948A0261E080E00E94D9030E94DB01E8
:100D40004B015C0188EEC82E83E0D82EE12CF12CFB
:100D50000E94DB01681979098A099B09683E734082
:100D600081059105A8F3F1E0CF1AD108E108F10857
:100D700028EE820E23E0921EA11CB11CC114D104E6
:100D8000E104F10429F789819A81009711F00E940A
:100D9000D50880E090E0892B09F424CE0E94000061
:100DA00021CE1E821D8262E471E0C9010E94240AE4
:100DB00072CF133469F4CE0101960E94160460E0EC
:100DC00085E00E94D9038DE391E00E948A0297CFCB
:100DD000133209F094CF89819A810E94B4079093CD
:100DE000190180931801CE0101960E94160460E05B
:100DF00085E00E94D90380E491E00E948A02C090BD
:100E00001801D09019010D2C000CEE08FF084AE0E3
:100E1000C701B601F7FE0EC041E06DE289ED91E039
:100E20000E94DA0266277727CB016C197D098E09AB
:100E30009F094AE00E943C0262CF49977CF461E03E
:100E40008DE00E94710160E08CE00E94710160E021
:100E50008BE00E9471018CE491E06ACF60E08DE04C
:100E60000E94710160E08CE00E94710161E08BE002
:100E70000E94710186E591E05BCF6170B4CE109263
:100E80006C011092700110926F011092710180E359
:100E900091E090936B0180936A01E6E8F1E01082A3
:100EA000148213821582369681E0E23CF807B9F786
:100EB00084E091E09093CD018093CC0180E091E0BB
:100EC0009093CF018093CE0184E08093D0018093F2
:100ED000D10128E031E03093CB012093CA012AE010
:100EE00030E03093D3012093D20124EF31E03093EE
:100EF000D5012093D4011092D8011092D7011092FD
:100F0000C6011092C7011092C8011092C901109237
:100F1000D6011092DC011092DB0124E231E0309323
:100F2000DA012093D9019CE09093DD019FEF90932B
:100F3000DE019BE09093DF0196E09093E0018093C7
:100F4000E10183E08093E20182E08093E30110926B
:100F5000E4011092E5011092E6011092E70110926F
:100F6000E80181E00C943303FC0188279927E89479
:100F700021912032E9F3293010F02E30C8F32B32C2
:100F800041F02D3239F4689404C00E94D207820FD8
:100F9000911D219120532A30C0F31EF49095819524
:100FA0009F4F08957AE0979F902D879F802D910DF8
:100FB000112408952F923F924F925F926F927F92E9
:100FC0008F929F92AF92BF92CF92DF92EF92FF9259
:100FD0000F931F93CF93DF93CDB7DEB7CA1BDB0B05
:100FE0000FB6F894DEBF0FBECDBF09942A883988AA
:100FF00048885F846E847D848C849B84AA84B984B1
:10100000C884DF80EE80FD800C811B81AA81B981BC
:10101000CE0FD11D0FB6F894DEBF0FBECDBFED01D0
:101020000895A1E21A2EAA1BBB1BFD010DC0AA1F29
:10103000BB1FEE1FFF1FA217B307E407F50720F041
:10104000A21BB30BE40BF50B661F771F881F991FBC
:101050001A9469F760957095809590959B01AC0105
:10106000BD01CF010895EE0FFF1F0590F491E02D13
:1010700009940F931F93CF93DF938230910510F45F
:1010800082E090E0E091F301F091F40130E020E0A3
:10109000B0E0A0E0309799F42115310509F44AC079
:1010A000281B390B24303105D8F58A819B816115C5
:1010B000710589F1FB0193838283FE0111C0408198
:1010C00051810281138148175907E0F048175907E9
:1010D00099F4109761F012960C93129713961C9343
:1010E0003296CF01DF91CF911F910F910895009318
:1010F000F3011093F401F4CF2115310551F042179B
:10110000530738F0A901DB019A01BD01DF01F801A5
:10111000C1CFEF01F9CF9093F4018093F301CDCFCC
:10112000FE01E20FF31F819391932250310939831D
:101130002883D7CF2091F1013091F201232B41F484
:1011400020911C0130911D013093F2012093F10197
:1011500020911A0130911B012115310541F42DB761
:101160003EB740911E0150911F01241B350BE091A9
:10117000F101F091F201E217F307A0F42E1B3F0BEF
:101180002817390778F0AC014E5F5F4F24173507F9
:1011900048F04E0F5F1F5093F2014093F10181938D
:1011A00091939FCFF0E0E0E09CCFCF93DF93009747
:1011B000E9F0FC01329713821282A091F301B09101
:1011C000F401ED0130E020E01097A1F4208131819D
:1011D000820F931F2091F1013091F20128173907F6
:1011E00009F061C0F093F201E093F101DF91CF913A
:1011F0000895EA01CE17DF07E8F54A815B819E0179
:1012000041155105B1F7E901FB83EA8349915991F1
:10121000C40FD51FEC17FD0761F480819181029600
:10122000840F951FE90199838883828193819B8331
:101230008A83F0E0E0E012968D919C9113970097DD
:10124000B9F52D913C911197CD010296820F931F14
:101250002091F1013091F2012817390739F63097C2
:1012600051F51092F4011092F301B093F201A093A2
:10127000F101BCCFD383C28340815181840F951F7C
:10128000C817D90761F44E5F5F4F88819981480F75
:10129000591F518340838A819B81938382832115C7
:1012A000310509F0B0CFF093F401E093F3019ECF44
:1012B000FD01DC01C0CF13821282D7CFB0E0A0E0E5
:1012C000E4E6F9E00C94DC078C01009751F4CB01C3
:1012D0000E9439088C01C801CDB7DEB7E0E10C945B
:1012E000F807FC01E60FF71F9C0122503109E217B5
:1012F000F30708F49DC0D901CD91DC911197C61771
:10130000D70798F0C530D10530F3CE010497861782
:10131000970708F3C61BD70B2297C193D1936D9300
:101320007C93CF010E94D508D6CF5B01AC1ABD0AD1
:101330004C018C0E9D1EA091F301B091F401512C33
:10134000412CF12CE12C109731F58091F101909115
:10135000F2018815990509F05CC04616570608F099
:1013600058C080911A0190911B01009741F48DB7EC
:101370009EB740911E0150911F01841B950BE817E9
:10138000F90708F055C0F093F201E093F101F9017B
:1013900071836083A0CF8D919C91119712966C9070
:1013A000129713967C901397A815B90559F56C01FF
:1013B00042E0C40ED11CCA14DB0420F1AC014A196E
:1013C0005B09DA011296159780F06282738251836D
:1013D0004083D9016D937C93E114F10471F0D7013E
:1013E0001396FC93EE93129776CF22968C0F9D1F47
:1013F000F90191838083F301EFCFF093F401E0933F
:10140000F30169CF4816590608F42C017D01D30178
:101410009ACFCB010E9439087C01009749F0AE01B8
:10142000B8010E941B0AC8010E94D508870153CF4A
:1014300010E000E050CFFB01DC0102C001900D92F2
:1014400041505040D8F70895FB01DC0101900D9206
:0A1450000020E1F70895F894FFCFA3
:10145A000708090A02030405373839413435364288
:10146A00313233432A3023441C000000F501800046
:10147A0000000000E8030B023902380200000000F5
:10148A0000020402080254656D703A2000202020F0
:10149A0020200020204E6F726D616C0020202020D9
:1014AA0020436F6C64002020202020486F740000C5
:00000001FF
