:020000040000FA
:100000000C945D000C9485000C9485000C94850084
:100010000C9485000C9485000C9485000C9485004C
:100020000C9485000C9485000C9485000C9485003C
:100030000C9485000C9485000C9485000C9485002C
:100040000C948C020C9485000C9485000C94850013
:100050000C9485000C9485000C9485000C9485000C
:100060000C9485000C94850000000008000201003B
:100070000003040700000000000000000000000072
:10008000250028002B0000000000240027002A0083
:10009000040404040404040402020202020203032E
:1000A0000303030301020408102040800102040836
:1000B0001020010204081020D90311241FBECFEF25
:1000C000D8E0DEBFCDBF11E0A0E0B1E0E2E4F8E0AF
:1000D00002C005900D92A431B107D9F721E0A4E147
:1000E000B1E001C01D92A733B207E1F710E0CDE502
:1000F000D0E004C02197FE010E941904CC35D1073D
:10010000C9F70E94D6020C941F040C94000090E0E2
:10011000FC01EC55FF4F249180579F4FFC018491C7
:10012000882399F090E0880F991FFC01EA57FF4F50
:10013000A591B491FC01E458FF4F859194918FB73C
:10014000F894EC91E22BEC938FBF089590E0FC01C2
:10015000E859FF4F2491FC01EC55FF4F3491FC010D
:10016000E057FF4FE491EE23C9F0222339F023300A
:1001700001F1A8F4213019F1223029F1F0E0EE0F5D
:10018000FF1FE458FF4FA591B4918FB7F894EC91FD
:10019000611126C030953E233C938FBF08952730D0
:1001A000A9F02830C9F0243049F7809180008F7D74
:1001B00003C0809180008F7780938000DFCF84B56B
:1001C0008F7784BDDBCF84B58F7DFBCF8091B0006E
:1001D0008F778093B000D2CF8091B0008F7DF9CF20
:1001E0003E2BDACF3FB7F89480911B0190911C0110
:1001F000A0911D01B0911E0126B5A89B05C02F3FFF
:1002000019F00196A11DB11D3FBFBA2FA92F982F3C
:100210008827BC01CD01620F711D811D911D42E037
:10022000660F771F881F991F4A95D1F70895AF92DF
:10023000BF92CF92DF92EF92FF920F931F93CF93D3
:10024000DF936C017B018B01040F151FEB015E0135
:10025000AE18BF08C017D10759F06991D601ED91CA
:10026000FC910190F081E02DC6010995892B79F769
:10027000C501DF91CF911F910F91FF90EF90DF901B
:10028000CF90BF90AF900895089590E080E00895DA
:10029000CF93DF93EC0160E08E810E94A60061E0C5
:1002A0008E810E94A60060E08E810E94A6008BE8ED
:1002B00091E00197F1F7DF91CF910895CF92DF920E
:1002C000EF92FF920F931F93CF93DF936C017C010A
:1002D00087E0E80EF11CD0E0C0E0062F10E0B80186
:1002E0000C2E02C0759567950A94E2F76170F701CC
:1002F00081917F010E94A6002196C430D10579F733
:10030000C601DF91CF911F910F91FF90EF90DF9089
:10031000CF900C944801CF92DF92EF92FF920F930F
:100320001F93CF93DF93EC01F62E642F8C810E94F4
:10033000A6008D818F3F19F060E00E94A6000F2D6E
:1003400010E08F8584FF25C06E0187E0C80ED11CA8
:10035000F12CE12CB8010E2C02C0759567950A941A
:10036000E2F76170F60181916F010E94A600FFEF34
:10037000EF1AFF0A88E0E816F10461F7CE01DF9179
:10038000CF911F910F91FF90EF90DF90CF900C9441
:100390004801B80184E0759567958A95E1F7CE012B
:1003A0000E945E016F2DCE01DF91CF911F910F91C1
:1003B000FF90EF90DF90CF900C945E0140E0682FAB
:1003C0008FE191E00C948B01CF93DF93823029F47D
:1003D00090912E01986090932E018093320110929B
:1003E000330180E48093340180E18093350180E51E
:1003F00080933601809123010E948700809124011F
:100400008F3F11F00E948700809125010E94870094
:10041000CFE1D1E09E012F51314080912E0184FD2A
:100420000AC084E090E02196281739073CF48E81B9
:100430000E948700EFCF88E090E0F5CF8BE39DE04E
:100440000197F1F760E0809123010E94A60060E02F
:10045000809125010E94A600809124018F3F19F010
:1004600060E00E94A60080912E0184FD39C063E007
:100470008FE191E00E945E01CBE4D6E4CE010197CA
:10048000F1F763E08FE191E00E945E012197F1F7BF
:1004900063E08FE191E00E945E0183E592E00197C5
:1004A000F1F762E08FE191E00E945E0180912E0100
:1004B00080620E94DE0184E080932F018CE00E9424
:1004C000DE0181E00E94DE018BE39FE10197F1F7FD
:1004D00082E08093300186E0DF91CF910C94DE01C1
:1004E00080620E94DE018BE496E40197F1F780912F
:1004F0002E0180620E94DE0183E592E00197F1F710
:1005000080912E0180620E94DE01D0CF41E00E94E6
:100510008B0181E090E008951F920F920FB60F9229
:1005200011242F933F938F939F93AF93BF93809109
:10053000170190911801A0911901B0911A01309101
:10054000160123E0230F2D3758F50196A11DB11D8B
:10055000209316018093170190931801A09319011D
:10056000B0931A0180911B0190911C01A0911D0173
:10057000B0911E010196A11DB11D80931B019093A6
:100580001C01A0931D01B0931E01BF91AF919F91DB
:100590008F913F912F910F900FBE0F901F90189544
:1005A00026E8230F0296A11DB11DD2CFCF93DF9372
:1005B000CDB7DEB7A1970FB6F894DEBF0FBECDBFA3
:1005C000789484B5826084BD84B5816084BD85B52E
:1005D000826085BD85B5816085BD80916E0081603A
:1005E00080936E00109281008091810082608093E0
:1005F00081008091810081608093810080918000E2
:100600008160809380008091B10084608093B1000C
:100610008091B00081608093B00080917A00846006
:1006200080937A0080917A00826080937A00809132
:100630007A00816080937A0080917A00806880934C
:100640007A001092C10082E00E94E4019BE3292E0F
:100650009FE1392E2AE0422E512C612C712C00E0B2
:1006600010E081E00E94DE01C1010197F1F7E1E0B5
:10067000809132018111E0E0E195F0E0E15EFE4F12
:10068000848980680E94DE0147E050E06CE071E000
:100690008FE191E00E941701C0901401D0901501E4
:1006A0000D2C000CEE08FF08F7FE68C041E06DE27B
:1006B0008FE191E00E948B0122273327A9012C1999
:1006C0003D094E095F0919A2CE0181967C01CA013C
:1006D000B901A30192010E94F703605DF7016293E3
:1006E0007F01211531054105510589F7E114F10418
:1006F00061F001900020E9F73197AF014E195F09D1
:10070000B7018FE191E00E9417018091140190914F
:10071000150101968B3091050CF046C090931501A0
:10072000809314010E94F2004B015C0184EFC82EFB
:10073000DD24D394E12CF12C0E94F2006819790990
:100740008A099B09683E734081059105A8F3F1E091
:10075000CF1AD108E108F10828EE820E23E0921E9C
:10076000A11CB11CC114D104E104F10429F7011545
:10077000110509F476CF0E94000073CFA7019601FE
:1007800019A2CE0181967C01CA01B901A30192018F
:100790000E94F703605DF70162937F012115310527
:1007A0004105510589F7A2CF10921501109214014D
:1007B000B9CFEFE1F1E01382128284E091E09183FE
:1007C00080838CE084838FEF85838BE0868385E054
:1007D000878384E0808783E0818782E08287138635
:1007E000148615861686178681E00C94E401A1E232
:1007F0001A2EAA1BBB1BFD010DC0AA1FBB1FEE1F9B
:10080000FF1FA217B307E407F50720F0A21BB30BE5
:10081000E40BF50B661F771F881F991F1A9469F761
:1008200060957095809590959B01AC01BD01CF01BD
:100830000895EE0FFF1F0590F491E02D0994F894B0
:10084000FFCF000000008602170145014401636FDD
:06085000756E743A2000F1
:107E0000112484B714BE81FFF0D085E080938100F7
:107E100082E08093C00088E18093C10086E0809377
:107E2000C20080E18093C4008EE0C9D0259A86E02C
:107E300020E33CEF91E0309385002093840096BBD3
:107E4000B09BFECF1D9AA8958150A9F7CC24DD24C4
:107E500088248394B5E0AB2EA1E19A2EF3E0BF2EE7
:107E6000A2D0813461F49FD0082FAFD0023811F036
:107E7000013811F484E001C083E08DD089C08234E0
:107E800011F484E103C0853419F485E0A6D080C0E4
:107E9000853579F488D0E82EFF2485D0082F10E0AE
:107EA000102F00270E291F29000F111F8ED06801E7
:107EB0006FC0863521F484E090D080E0DECF843638
:107EC00009F040C070D06FD0082F6DD080E0C81688
:107ED00080E7D80618F4F601B7BEE895C0E0D1E017
:107EE00062D089930C17E1F7F0E0CF16F0E7DF06D8
:107EF00018F0F601B7BEE89568D007B600FCFDCFD4
:107F0000A601A0E0B1E02C9130E011968C91119780
:107F100090E0982F8827822B932B1296FA010C0160
:107F200087BEE89511244E5F5F4FF1E0A038BF0790
:107F300051F7F601A7BEE89507B600FCFDCF97BE46
:107F4000E89526C08437B1F42ED02DD0F82E2BD052
:107F50003CD0F601EF2C8F010F5F1F4F84911BD097
:107F6000EA94F801C1F70894C11CD11CFA94CF0C13
:107F7000D11C0EC0853739F428D08EE10CD085E9AC
:107F80000AD08FE07ACF813511F488E018D01DD067
:107F900080E101D065CF982F8091C00085FFFCCF94
:107FA0009093C60008958091C00087FFFCCF809118
:107FB000C00084FD01C0A8958091C6000895E0E648
:107FC000F0E098E1908380830895EDDF803219F02E
:107FD00088E0F5DFFFCF84E1DECF1F93182FE3DFCA
:107FE0001150E9F7F2DF1F91089580E0E8DFEE27F6
:047FF000FF270994CA
:027FFE00040479
:00000001FF
