:100000000C945D000C9485000C9485000C94850084
:100010000C9485000C9485000C9485000C9485004C
:100020000C9485000C9485000C9485000C9485003C
:100030000C9485000C9485000C9485000C9485002C
:100040000C9404040C9485000C9474040C944E04D9
:100050000C9485000C9485000C9485000C9485000C
:100060000C9485000C94850000000008000201003B
:100070000003040700000000000000000000000072
:10008000250028002B0000000000240027002A0083
:10009000040404040404040402020202020203032E
:1000A0000303030301020408102040800102040836
:1000B0001020010204081020A60411241FBECFEF57
:1000C000D8E0DEBFCDBF11E0A0E0B1E0E8EAF1E1A9
:1000D00002C005900D92AC34B107D9F722E0ACE430
:1000E000B1E001C01D92AA30B207E1F710E0CDE502
:1000F000D0E004C02197FE010E94CC08CC35D10786
:10010000C9F70E94F0040C94D2080C94000090E00F
:10011000FC01EC55FF4F249180579F4FFC018491C7
:10012000882399F090E0880F991FFC01EA57FF4F50
:10013000A591B491FC01E458FF4F859194918FB73C
:10014000F894EC91E22BEC938FBF089590E0FC01C2
:10015000E859FF4F2491FC01EC55FF4F3491FC010D
:10016000E057FF4FE491EE23C9F0222339F023300A
:1001700001F1A8F4213019F1223029F1F0E0EE0F5D
:10018000FF1FE458FF4FA591B4918FB7F894EC91FD
:10019000611126C030953E233C938FBF08952730D0
:1001A000A9F02830C9F0243049F7809180008F7D74
:1001B00003C0809180008F7780938000DFCF84B56B
:1001C0008F7784BDDBCF84B58F7DFBCF8091B0006E
:1001D0008F778093B000D2CF8091B0008F7DF9CF20
:1001E0003E2BDACF3FB7F8948091510190915201A4
:1001F000A0915301B091540126B5A89B05C02F3F93
:1002000019F00196A11DB11D3FBFBA2FA92F982F3C
:100210008827BC01CD01620F711D811D911D42E037
:10022000660F771F881F991F4A95D1F708958F92FF
:100230009F92AF92BF92CF92DF92EF92FF920E9475
:10024000F2004B015C0188EEC82E83E0D82EE12C31
:10025000F12C0E94F200681979098A099B09683E0D
:10026000734081059105A8F321E0C21AD108E10885
:10027000F10888EE880E83E0981EA11CB11CC11401
:10028000D104E104F10429F7FF90EF90DF90CF90C3
:10029000BF90AF909F908F900895AF92BF92CF92F2
:1002A000DF92EF92FF920F931F93CF93DF936C0136
:1002B0007B018B01040F151FEB015E01AE18BF0817
:1002C000C017D10759F06991D601ED91FC910190C9
:1002D000F081E02DC6010995892B79F7C501DF91E1
:1002E000CF911F910F91FF90EF90DF90CF90BF9033
:1002F000AF900895FC01538D448D252F30E0842F5D
:1003000090E0821B930B541710F0CF96089501973D
:100310000895FC01918D828D981761F0A28DAE0F2A
:10032000BF2FB11D5D968C91928D9F5F9F73928FB1
:1003300090E008958FEF9FEF0895FC01918D828DDD
:10034000981731F0828DE80FF11D858D90E00895AA
:100350008FEF9FEF0895FC01918D228D892F90E002
:10036000805C9F4F821B91098F739927089585E5C3
:1003700091E00E94AB0121E0892B09F420E0822F5B
:10038000089580E090E0892B29F00E94B701811147
:100390000C9400000895FC01A48DA80FB92FB11D85
:1003A000A35ABF4F2C91848D90E001968F739927AB
:1003B000848FA689B7892C93A089B1898C91837089
:1003C00080648C93938D848D981306C00288F38982
:1003D000E02D80818F7D80830895EF92FF920F93AF
:1003E0001F93CF93DF93EC0181E0888F9B8D8C8DE1
:1003F00098131AC0E889F989808185FF15C09FB7D5
:10040000F894EE89FF896083E889F9898081837097
:10041000806480839FBF81E090E0DF91CF911F9146
:100420000F91FF90EF900895F62E0B8D10E00F5F67
:100430001F4F0F731127E02E8C8D8E110CC00FB63D
:1004400007FCFACFE889F989808185FFF5CFCE01D5
:100450000E94CB01F1CFEB8DEC0FFD2FF11DE35A84
:10046000FF4FF0829FB7F8940B8FEA89FB89808158
:100470008062CFCFCF93DF93EC01888D8823B9F0D2
:10048000AA89BB89E889F9898C9185FD03C080819F
:1004900086FD0DC00FB607FCF7CF8C9185FFF2CF1C
:1004A000808185FFEDCFCE010E94CB01E9CFDF91A6
:1004B000CF910895089590E080E00895FC010190A7
:1004C0000020E9F73197AF01481B590BBC0182EFBF
:1004D00091E00C944D018F929F92AF92BF920F9337
:1004E0001F93CF93DF93CDB7DEB7A1970FB6F894E4
:1004F000DEBF0FBECDBF19A2423008F44AE08E0124
:100500000F5D1F4F842E912CB12CA12CA5019401BD
:100510000E94AA08E62FB901CA01EA30F4F4E05DAE
:10052000D801EE938D01232B242B252B79F790E016
:1005300080E0109719F0CD010E945E02A1960FB6DF
:10054000F894DEBF0FBECDBFDF91CF911F910F9109
:10055000BF90AF909F908F900895E95CE1CF0C948D
:100560005E02CF93DF93EC0160E08E810E94A600D3
:1005700061E08E810E94A60060E08E810E94A6004C
:100580008BE891E00197F1F7DF91CF910895CF9239
:10059000DF92EF92FF920F931F93CF93DF936C0143
:1005A0007C0187E0E80EF11CD0E0C0E0062F10E0EF
:1005B000B8010C2E02C0759567950A94E2F7617038
:1005C000F70181917F010E94A6002196C430D105D8
:1005D00079F7C601DF91CF911F910F91FF90EF90B6
:1005E000DF90CF900C94B102CF92DF92EF92FF9206
:1005F0000F931F93CF93DF93EC01F62E642F8C8122
:100600000E94A6008D818F3F19F060E00E94A60035
:100610000F2D10E08F8584FF25C06E0187E0C80E86
:10062000D11CF12CE12CB8010E2C02C075956795F8
:100630000A94E2F76170F60181916F010E94A600B1
:10064000FFEFEF1AFF0A88E0E816F10461F7CE0128
:10065000DF91CF911F910F91FF90EF90DF90CF909E
:100660000C94B102B80184E0759567958A95E1F71D
:10067000CE010E94C7026F2DCE01DF91CF911F9155
:100680000F91FF90EF90DF90CF900C94C70240E065
:10069000682F82EF91E00C94F402CF93DF938230C5
:1006A00029F49091010298609093010280930502D1
:1006B0001092060280E48093070280E18093080292
:1006C00080E5809309028091F6010E948700809165
:1006D000F7018F3F11F00E9487008091F8010E947E
:1006E0008700C2EFD1E09E01225F3140809101027C
:1006F00084FD0AC084E090E02196281739073CF475
:100700008E810E948700EFCF88E090E0F5CF8BE3E9
:100710009DE00197F1F760E08091F6010E94A6004C
:1007200060E08091F8010E94A6008091F7018F3F60
:1007300019F060E00E94A6008091010284FD39C09A
:1007400063E082EF91E00E94C702CBE4D6E4CE01E1
:100750000197F1F763E082EF91E00E94C7022197D1
:10076000F1F763E082EF91E00E94C70283E592E037
:100770000197F1F762E082EF91E00E94C702809159
:10078000010280620E94470384E0809302028CE0B1
:100790000E94470381E00E9447038BE39FE101979A
:1007A000F1F782E08093030286E0DF91CF910C9411
:1007B000470380620E9447038BE496E40197F1F7B8
:1007C0008091010280620E94470383E592E00197D5
:1007D000F1F78091010280620E944703D0CF90918F
:1007E0000502691710F06FEF690FE62FF0E0EE5089
:1007F000FE4F9489890F80680C94470341E00E9462
:10080000F40281E090E008951F920F920FB60F92CC
:1008100011242F933F938F939F93AF93BF93809116
:100820004D0190914E01A0914F01B0915001309136
:100830004C0123E0230F2D3758F50196A11DB11D62
:1008400020934C0180934D0190934E01A0934F0152
:10085000B09350018091510190915201A0915301A8
:10086000B09154010196A11DB11D80935101909347
:100870005201A0935301B0935401BF91AF919F9146
:100880008F913F912F910F900FBE0F901F90189551
:1008900026E8230F0296A11DB11DD2CF1F920F9201
:1008A0000FB60F9211242F933F934F935F936F9343
:1008B0007F938F939F93AF93BF93EF93FF9385E5C0
:1008C00091E00E94CB01FF91EF91BF91AF919F9179
:1008D0008F917F916F915F914F913F912F910F90E9
:1008E0000FBE0F901F9018951F920F920FB60F9288
:1008F00011242F938F939F93EF93FF93E0916501C2
:10090000F09166018081E0916B01F0916C0182FDB4
:100910001BC0908180916E018F5F8F7320916F015A
:10092000821741F0E0916E01F0E0EB5AFE4F958F97
:1009300080936E01FF91EF919F918F912F910F9076
:100940000FBE0F901F9018958081F4CFE5E5F1E080
:100950001382128288EE93E0A0E0B0E08483958356
:10096000A683B78384E091E09183808385EC90E057
:100970009587848784EC90E09787868780EC90E069
:10098000918B808B81EC90E0938B828B82EC90E05A
:10099000958B848B86EC90E0978B868B118E128ED4
:1009A000138E148EE2EFF1E01382128286E191E061
:1009B0009183808382E084838FEF858383E08683C5
:1009C00084E0878385E0808786E0818787E082876F
:1009D0001386148615861686178681E00C944D03BF
:1009E000789484B5826084BD84B5816084BD85B50A
:1009F000826085BD85B5816085BD80916E00816016
:100A000080936E00109281008091810082608093BB
:100A100081008091810081608093810080918000BD
:100A20008160809380008091B10084608093B100E8
:100A30008091B00081608093B00080917A008460E2
:100A400080937A0080917A00826080937A0080910E
:100A50007A00816080937A0080917A008068809328
:100A60007A001092C100E0916501F091660182E088
:100A70008083E0916101F09162011082E091630155
:100A8000F09164018FEC808310926D01E091690117
:100A9000F0916A0186E08083E0916701F09168013E
:100AA000808180618083E0916701F091680180819D
:100AB00088608083E0916701F0916801808180689F
:100AC0008083E0916701F091680180818F7D808350
:100AD00082E00E944D038DE00E94870089E00E9421
:100AE00087008CE00E9487008BE00E9487008AE0EC
:100AF0000E9487000E94170181E00E9447038BE358
:100B00009FE10197F1F78EE191E00E94AF0261E071
:100B100080E00E94EF0385E291E00E94AF0261E075
:100B200088E00E94EF038BE291E00E94AF0261E057
:100B300089E00E94EF038DE291E00E94AF0210E491
:100B4000C0E0D0E010937C0080917A0080648093B4
:100B50007A0080917A0086FDFCCF609178007091D8
:100B60007900072E000C880B990B0E9483076B01FC
:100B70007C0160E086E00E94EF03A7019601C701B7
:100B8000B6010E94A508882391F183E391E00E94B9
:100B90005E0220E030E040EF51E4C701B6010E9460
:100BA000330818160CF0B7C061E08DE00E94A60073
:100BB00060E089E00E94A60061E08CE00E94A6004F
:100BC00060E08BE00E94A60060E08AE00E94A60040
:100BD00061E085E00E94EF038FE391E00E94AF02A5
:100BE00061E08DE00E94EF0383E491E0C0C0460124
:100BF0005701E894B7F82FEF3FEF4FE75FE7C501E4
:100C0000B4010E94A50881110DC02FEF3FEF4FE7FF
:100C10005FE7C501B4010E944D0718161CF487E375
:100C200091E0B5CF2FEF3FEF4FE75FE4C701B6018B
:100C30000E94330818161CF48BE391E0A8CF2FEF25
:100C40003FEF4FE75FECC701B6010E944D0787FDFC
:100C5000F3CF20E030E0A901C701B6010E944D07A3
:100C600087FF56C041E06DE282EF91E00E94F402FE
:100C7000C701B60190582AE037ED43EA5BE30E94D2
:100C8000E1062B013C010E9452074B015C010E94CE
:100C900081079B01AC01C301B2010E94E0062B0158
:100CA0003C014AE0C501B4010E946B0241E06EE2E2
:100CB00082EF91E00E94F40220E030E040E251E453
:100CC000C301B2010E9438082B013C010E94520767
:100CD0004B01B12CA12C4AE0C501B4010E946B026A
:100CE000C501B4010E9481079B01AC01C301B2019F
:100CF0000E94E00620E030E040E251E40E94380823
:100D00000E94520790E080E04AE00E946B0241CFCF
:100D1000C701B601B0CF20E030E048EC51E4C70194
:100D2000B6010E944D0760E087FF30C08DE00E9451
:100D3000A60061E089E00E94A60060E08CE00E94CD
:100D4000A60060E08BE00E94A60061E08AE00E94BD
:100D5000A60061E085E00E94EF0388E491E00E9434
:100D6000AF0261E08DE00E94EF038FE391E00E940B
:100D7000AF020E941701209709F4E4CE0E94B70148
:100D8000882309F4DFCE0E940000DCCE8DE00E94B3
:100D9000A60060E089E00E94A60060E08CE00E946E
:100DA000A60061E08BE00E94A60060E08AE00E945D
:100DB000A60061E085E00E94EF0388E491E00ECF99
:100DC0005058BB27AA270E94F8060C94F9070E94E6
:100DD000EB0738F00E94F20720F039F49F3F19F436
:100DE00026F40C94E8070EF4E095E7FB0C94E20778
:100DF000E92F0E940A0858F3BA176207730784079D
:100E0000950720F079F4A6F50C942C080EF4E095E3
:100E10000B2EBA2FA02D0B01B90190010C01CA01B4
:100E2000A0011124FF27591B99F0593F50F4503E5F
:100E300068F11A16F040A22F232F342F4427585F51
:100E4000F3CF469537952795A795F0405395C9F769
:100E50007EF41F16BA0B620B730B840BBAF0915021
:100E6000A1F0FF0FBB1F661F771F881FC2F70EC0C0
:100E7000BA0F621F731F841F48F487957795679593
:100E8000B795F7959E3F08F0B0CF9395880F08F07F
:100E90009927EE0F9795879508950E94BE0708F44D
:100EA00081E008950E94120888F09F5798F0B92FAA
:100EB0009927B751B0F0E1F0660F771F881F991F8F
:100EC0001AF0BA95C9F714C0B13091F00E942C08FD
:100ED000B1E008950C942C08672F782F8827B85F0D
:100EE00039F0B93FCCF3869577956795B395D9F7E7
:100EF0003EF490958095709561957F4F8F4F9F4FF1
:100F00000895E89409C097FB3EF4909580957095FC
:100F100061957F4F8F4F9F4F9923A9F0F92F96E945
:100F2000BB279395F695879577956795B795F111BA
:100F3000F8CFFAF4BB0F11F460FF1BC06F5F7F4F57
:100F40008F4F9F4F16C0882311F096E911C0772369
:100F500021F09EE8872F762F05C0662371F096E872
:100F6000862F70E060E02AF09A95660F771F881F41
:100F7000DAF7880F9695879597F90895990F0008E5
:100F8000550FAA0BE0E8FEEF16161706E807F9075B
:100F9000C0F012161306E407F50798F0621B730BF6
:100FA000840B950B39F40A2661F0232B242B252B77
:100FB00021F408950A2609F4A140A6958FEF811D1A
:100FC000811D089597F99F6780E870E060E00895BB
:100FD0009FEF80EC089500240A9416161706180651
:100FE0000906089500240A9412161306140605062D
:100FF0000895092E0394000C11F4882352F0BB0FBE
:1010000040F4BF2B11F460FF04C06F5F7F4F8F4F20
:101010009F4F089557FD9058440F551F59F05F3F5B
:1010200071F04795880F97FB991F61F09F3F79F00A
:1010300087950895121613061406551FF2CF46958C
:10104000F1DF08C0161617061806991FF1CF86950E
:101050007105610508940895E894BB2766277727F2
:10106000CB0197F908950E94BE0708F48FEF089509
:101070000E944B080C94F9070E94EB0738F00E947D
:10108000F20720F0952311F00C94E2070C94E80786
:1010900011240C942D080E940A0870F3959FC1F347
:1010A000950F50E0551F629FF001729FBB27F00D16
:1010B000B11D639FAA27F00DB11DAA1F649F66276B
:1010C000B00DA11D661F829F2227B00DA11D621FBA
:1010D000739FB00DA11D621F839FA00D611D221F74
:1010E000749F3327A00D611D231F849F600D211D58
:1010F000822F762F6A2F11249F5750409AF0F1F0DB
:1011000088234AF0EE0FFF1FBB1F661F771F881F43
:1011100091505040A9F79E3F510580F00C94E20792
:101120000C942D085F3FE4F3983ED4F386957795B1
:101130006795B795F795E7959F5FC1F7FE2B880FE9
:10114000911D9695879597F908950E94BE07880B83
:10115000990B0895A1E21A2EAA1BBB1BFD010DC01D
:10116000AA1FBB1FEE1FFF1FA217B307E407F50757
:1011700020F0A21BB30BE40BF50B661F771F881F33
:10118000991F1A9469F760957095809590959B01C9
:10119000AC01BD01CF010895EE0FFF1F0590F49142
:0811A000E02D0994F894FFCF43
:1011A80000000000ED014D017A013A02AB0189010E
:1011B8009D0100000000FE034D015B025A025465C8
:1011C8006D703D200046616E3D20002600486F741A
:1011D8003D20006E616E00696E66006F7666004F96
:0C11E8004E20004F464620004F464600B7
:00000001FF
