:100000000C9462000C948A000C948A000C948A0070
:100010000C948A000C948A000C948A000C948A0038
:100020000C948A000C948A000C948A000C948A0028
:100030000C948A000C948A000C948A000C948A0018
:100040000C9431050C948A000C94A1050C947B054A
:100050000C948A000C948A000C948A000C948A00F8
:100060000C948A000C948A000000000024002700F1
:100070002A0000000000250028002B0000000000DE
:1000800023002600290004040404040404040202DA
:100090000202020203030303030301020408102007
:1000A0004080010204081020010204081020000012
:1000B0000008000201000003040700000000000027
:1000C0000000D30511241FBECFEFD8E0DEBFCDBFA7
:1000D00012E0A0E0B1E0EEEDF7E102C005900D9274
:1000E000AA30B107D9F723E0AAE0B2E001C01D921F
:1000F000A634B207E1F710E0C2E6D0E004C02197D1
:10010000FE010E94D80BC136D107C9F70E948B06A9
:100110000C94ED0B0C94000096E0899FD001112403
:10012000A952BD4F90967C936E935F9791E0919604
:100130009C939197E0914403F09145039091430380
:10014000992339F0309751F0811108C08091F30262
:100150000994309719F05C968C91FACF0895CF925C
:10016000DF92EF92FF920F931F9396E0899FF00129
:100170001124E952FD4F11A2278D30A12130310504
:1001800051F178F02230310509F451C023303105A6
:1001900009F452C01F910F91FF90EF90DF90CF9024
:1001A00008956623B9F361E070E00E948C002FB7D8
:1001B000F89480911E0290911F02A0912002B091AC
:1001C00021022FBF80932F0390933003A09331031C
:1001D000B0933203DFCF9FB7F894C0901E02D09047
:1001E0001F02E0902002F09021029FBF00912F0398
:1001F000109130032091310330913203C01AD10A9B
:10020000E20AF30A009141031091420330E020E03A
:100210000C151D052E053F0550F462E070E01F919E
:100220000F91FF90EF90DF90CF900C948C006111B4
:10023000B1CF63E070E0F3CF70E060E0F0CFFC019D
:10024000538D448D252F30E0842F90E0821B930B3B
:10025000541710F0CF96089501970895FC01918DE1
:10026000828D981761F0A28DAE0FBF2FB11D5D96E4
:100270008C91928D9F5F9F73928F90E008958FEF86
:100280009FEF0895FC01918D828D981731F0828D3A
:10029000E80FF11D858D90E008958FEF9FEF089591
:1002A000FC01918D228D892F90E0805C9F4F821BF5
:1002B00091098F7399270895FC01A48DA80FB92F78
:1002C000B11DA35ABF4F2C91848D90E001968F737E
:1002D0009927848FA689B7892C93A089B1898C919D
:1002E000837080648C93938D848D981306C00288EC
:1002F000F389E02D80818F7D80830895EF92FF92B6
:100300000F931F93CF93DF93EC0181E0888F9B8D38
:100310008C8D98131AC0E889F989808185FF15C0F2
:100320009FB7F894EE89FF896083E889F989808115
:100330008370806480839FBF81E090E0DF91CF91E4
:100340001F910F91FF90EF900895F62E0B8D10E006
:100350000F5F1F4F0F731127E02E8C8D8E110CC075
:100360000FB607FCFACFE889F989808185FFF5CFC0
:10037000CE010E945C01F1CFEB8DEC0FFD2FF11D42
:10038000E35AFF4FF0829FB7F8940B8FEA89FB89FD
:1003900080818062CFCFCF93DF93EC01888D88235B
:1003A000B9F0AA89BB89E889F9898C9185FD03C0D8
:1003B000808186FD0DC00FB607FCF7CF8C9185FFBD
:1003C000F2CF808185FFEDCFCE010E945C01E9CFA5
:1003D000DF91CF91089582E292E00E94500121E0E6
:1003E000892B09F420E0822F089580E090E0892B8A
:1003F00029F00E94EB0181110C94000008958330D4
:1004000081F028F4813099F08230A9F00895873086
:10041000A9F08830C9F08430B1F4809180008F7DDC
:1004200003C0809180008F7780938000089584B509
:100430008F7784BD089584B58F7DFBCF8091B00008
:100440008F778093B00008958091B0008F7DF9CFB1
:10045000CF93DF93282F30E0F901E255FF4F8491CD
:10046000F901E656FF4FD491F901EA57FF4FC491C5
:10047000CC23A1F081110E94FF01EC2FF0E0EE0FE0
:10048000FF1FE458FF4FA591B491EC91ED2381E05B
:1004900090E009F480E0DF91CF91089580E090E052
:1004A000FACF1F93CF93DF93282F30E0F901E25565
:1004B000FF4F8491F901E656FF4FD491F901EA57B5
:1004C000FF4FC491CC23A9F0162F81110E94FF0188
:1004D000EC2FF0E0EE0FFF1FEE58FF4FA591B49107
:1004E0008FB7F894EC91111108C0D095DE23DC93FE
:1004F0008FBFDF91CF911F910895DE2BF8CFCF935F
:10050000DF9390E0FC01E656FF4F24918A579F4FFE
:10051000FC0184918823C9F090E0880F991FFC01A9
:10052000E859FF4FA591B491FC01EE58FF4FC591DA
:10053000D49161110DC09FB7F8948C9120958223BE
:100540008C938881282328839FBFDF91CF910895C2
:10055000623051F49FB7F8943C91822F80958323A9
:100560008C93E8812E2BEFCF8FB7F894EC912E2B44
:100570002C938FBFEACF3FB7F89480911A029091E5
:100580001B02A0911C02B0911D0226B5A89B05C0BC
:100590002F3F19F00196A11DB11D3FBFBA2FA92F02
:1005A000982F8827BC01CD01620F711D811D911DFF
:1005B00042E0660F771F881F991F4A95D1F708956B
:1005C0008F929F92AF92BF92CF92DF92EF92FF9263
:1005D0004B015C010E94BB026B017C010E94BB02CB
:1005E0006C197D098E099F09683E7340810591054C
:1005F000A8F321E0821A9108A108B10888EEC80E7C
:1006000083E0D81EE11CF11C81149104A104B10403
:1006100029F7FF90EF90DF90CF90BF90AF909F9021
:100620008F900895862F642F0C947F02862F642F5D
:100630000C945102862F0C942802AF92BF92CF9255
:10064000DF92EF92FF920F931F93CF93DF936C0192
:100650007B018B01040F151FEB015E01AE18BF0873
:10066000C017D10759F06991D601ED91FC91019025
:10067000F081E02DC6010995892B79F7C501DF913D
:10068000CF911F910F91FF90EF90DF90CF90BF908F
:10069000AF900895089590E080E00895CF93DF93A0
:1006A000EC0160E08E810E94510261E08E810E9427
:1006B000510260E08E810E9451028BE891E0019727
:1006C000F1F7DF91CF910895CF92DF92EF92FF92F1
:1006D0000F931F93CF93DF936C017C0187E0E80EAB
:1006E000F11CD0E0C0E0062F10E0B8010C2E02C0D3
:1006F000759567950A94E2F76170F70181917F0122
:100700000E9451022196C430D10579F7C601DF91CC
:10071000CF911F910F91FF90EF90DF90CF900C94AD
:100720004E03CF92DF92EF92FF920F931F93CF93DE
:10073000DF93EC01F62E642F8C810E9451028D8193
:100740008F3F19F060E00E9451020F2D10E08F855D
:1007500084FF25C06E0187E0C80ED11CF12CE12C6E
:10076000B8010E2C02C0759567950A94E2F7617086
:10077000F60181916F010E945102FFEFEF1AFF0A0B
:1007800088E0E816F10461F7CE01DF91CF911F9167
:100790000F91FF90EF90DF90CF900C944E03B80133
:1007A00084E0759567958A95E1F7CE010E94640310
:1007B0006F2DCE01DF91CF911F910F91FF90EF90A0
:1007C000DF90CF900C94640340E0682F8FEB92E0B1
:1007D0000C94910381E00E94E4038BE39FE1019775
:1007E000F1F70895CF93DF93823029F49091CE02F0
:1007F00098609093CE028093D2021092D30280E44C
:100800008093D40280E18093D50280E58093D60264
:1008100061E08091C3020E947F028091C4028F3FF9
:1008200019F061E00E947F0261E08091C5020E94A0
:100830007F02CFEBD2E09E012F5B32408091CE024F
:1008400084FD0BC084E090E021962817390744F41A
:1008500061E08E810E947F02EECF88E090E0F4CFCD
:100860008BE39DE00197F1F760E08091C3020E9465
:10087000510260E08091C5020E9451028091C40241
:100880008F3F19F060E00E9451028091CE0284FDFA
:1008900034C063E08FEB92E00E946403CBE4D6E4C3
:1008A000CE010197F1F763E08FEB92E00E946403C1
:1008B0002197F1F763E08FEB92E00E94640383E5F8
:1008C00092E00197F1F762E08FEB92E00E946403FF
:1008D0008091CE0280620E94E40384E08093CF0284
:1008E0008CE00E94E4030E94EA0382E08093D0023D
:1008F00086E0DF91CF910C94E40380620E94E403D0
:100900008BE496E40197F1F78091CE0280620E9419
:10091000E40383E592E00197F1F78091CE028062D3
:100920000E94E403D5CF41E00E94910381E090E072
:100930000895FB0101900020E9F73197AF01461BB4
:10094000570BDC01ED91FC910280F381E02D0994BD
:10095000CF93DF93BC0182E292E00E949904EC0104
:1009600060E471E082E292E00E9499048C0F9D1F86
:10097000DF91CF910895CF92DF92EF92FF920F9384
:100980001F93CF93DF93CDB7DEB7A1970FB6F8943F
:10099000DEBF0FBECDBF6B017C01F7FE3EC041E064
:1009A0006DE28FEB92E00E94910322273327A90189
:1009B0002C193D094E095F0919A28E010F5D1F4FC9
:1009C0009AE0C92ED12CE12CF12CCA01B901A70162
:1009D00096010E948C0B605DF80162938F012115D6
:1009E00031054105510589F790E080E0309729F005
:1009F000BF018FEB92E00E9499040196A1960FB679
:100A0000F894DEBF0FBECDBFDF91CF911F910F9144
:100A1000FF90EF90DF90CF900895AC019B0119A259
:100A20008E010F5D1F4F8AE0C82ED12CE12CF12CD6
:100A3000CA01B901A70196010E948C0B605DF80103
:100A400062938F01211531054105510589F790E029
:100A500080E0309799F2BF018FEB92E00E949904F9
:100A6000CDCF1F920F920FB60F9211242F933F9369
:100A70008F939F93AF93BF9380911E0290911F021B
:100A8000A0912002B09121023091190223E0230F9E
:100A90002D3758F50196A11DB11D209319028093A1
:100AA0001E0290931F02A0932002B0932102809116
:100AB0001A0290911B02A0911C02B0911D02019696
:100AC000A11DB11D80931A0290931B02A0931C02DA
:100AD000B0931D02BF91AF919F918F913F912F9144
:100AE0000F900FBE0F901F90189526E8230F0296C7
:100AF000A11DB11DD2CF1F920F920FB60F921124DC
:100B00002F933F934F935F936F937F938F939F9315
:100B1000AF93BF93EF93FF9382E292E00E945C0158
:100B2000FF91EF91BF91AF919F918F917F916F91C5
:100B30005F914F913F912F910F900FBE0F901F909B
:100B400018951F920F920FB60F9211242F938F9327
:100B50009F93EF93FF93E0913202F09133028081F3
:100B6000E0913802F091390282FD1BC090818091A2
:100B70003B028F5F8F7320913C02821741F0E0911E
:100B80003B02F0E0EE5DFD4F958F80933B02FF91BD
:100B9000EF919F918F912F910F900FBE0F901F900B
:100BA00018958081F4CF109225021092240288EECD
:100BB00093E0A0E0B0E08093260290932702A093F8
:100BC0002802B09329028CE191E090932302809354
:100BD000220285EC90E090932F0280932E0284EC09
:100BE00090E0909331028093300280EC90E09093FB
:100BF00033028093320281EC90E09093350280932F
:100C0000340282EC90E0909337028093360286ECB7
:100C100090E0909339028093380210923B02109238
:100C20003C0210923D0210923E021092D9021092A4
:100C3000DD021092DC021092DE028AE391E09093D2
:100C4000D8028093D702E3EFF2E01082148213827D
:100C50001582369683E0EF32F807B9F784E091E029
:100C600090933A038093390380E091E090933C03A2
:100C700080933B0384E080933D0380933E0388E0B0
:100C800091E090933803809337038AE090E090934B
:100C9000400380933F0384EF91E09093420380935D
:100CA00041031092450310924403109233031092B3
:100CB00034031092350310923603109243031092BE
:100CC000C2021092C1028EE291E09093C002809322
:100CD000BF028EE08093C3028FEF8093C4028FE047
:100CE0008093C50280E18093C60281E18093C702B0
:100CF00082E18093C80283E18093C9021092CA0204
:100D00001092CB021092CC021092CD021092CE0221
:100D100081E00C94F203789484B5826084BD84B53C
:100D2000816084BD85B5826085BD85B5816085BDE6
:100D300080916E00816080936E001092810080919E
:100D40008100826080938100809181008160809326
:100D50008100809180008160809380008091B1004B
:100D600084608093B1008091B00081608093B00076
:100D700080917A00846080937A0080917A0082600A
:100D800080937A0080917A00816080937A008091CC
:100D90007A00806880937A001092C10082E00E94FD
:100DA000F20363E471E08FEB92E00E949904E0911A
:100DB000D202E23008F059C0E150F0E0E154FD4FBA
:100DC000848980680E94E40366E571E08FEB92E01D
:100DD0000E94990468EE73E080E090E00E94E002D7
:100DE0000E94EA0365E0462E512C612C712C2224CE
:100DF0002A94322C50E0852E50E0952E81E080938D
:100E000043038FB7F89440911E0250911F026091E6
:100E10002002709121028FBF80913303909134039F
:100E2000A0913503B0913603481B590B6A0B7B0B1D
:100E300080913F0390914003B0E0A0E084179507B4
:100E4000A607B70708F098C1C0E080913D03C81716
:100E500070F4E0913903F0913A03EC0FF11D62E078
:100E600080810E947F02CF5FF0CFE1E0A6CFB12C5E
:100E700080913E03B81608F061C00B2D10E0E091A0
:100E80003B03F0913C03E00FF11F61E080810E9481
:100E90007F02E0913B03F0913C03E00FF11F60E023
:100EA00080810E94510281E090E0A0E0B0E00B2C34
:100EB00004C0880F991FAA1FBB1F0A94D2F76C01A8
:100EC0007C01E094F094A12C80913D03A816F8F4E5
:100ED000CA2DD0E0E0913903F0913A03EC0FFD1FE9
:100EE00080810E9428022496CC0FDD1FC952DD4F5D
:100EF000892B41F4888199818C299D299983888344
:100F0000A394E2CF888199818E219F21F7CFE09130
:100F10003B03F0913C03E00FF11F61E080810E94F0
:100F2000510280913B0390913C03080F191F60E030
:100F3000D8018C910E947F02B3949ACF27EDC22EE4
:100F400022E0D22EE6018F8D98A1892B21F41C8EF0
:100F50003E8E2D8E19A22696E3E1F3E0EC17FD07F5
:100F600091F710E096E0B92E80913D03181708F034
:100F700052C000E0E12EF12CEE0CFF1C9701215233
:100F80003D4F790120913E03021708F042C0D7017E
:100F90006D917C91002E02C0769567950A94E2F7D8
:100FA000129F90011124200F311DE7EDF2E080E047
:100FB000458D568D2417350709F49CC38F5F3696EF
:100FC0008A30B1F760FF23C0E7EDF2E090E080E007
:100FD000448D411117C0E0913703F0913803E20FBF
:100FE000F31F6081B89EF001B99EF00D1124E95203
:100FF000FD4F648F368F258F10A2178E61E00E94FF
:10100000AF0005C0019636968A30910509F70F5F4B
:10101000B9CF1F5FA9CF80E0F60191A19111892F6F
:10102000F6E0CF0ED11CCC15DD05B1F79FB7F894D3
:1010300040911E0250911F02609120027091210286
:101040009FBF4093330350933403609335037093F1
:101050003603882309F490C08091F802882309F4AC
:101060008BC08091F6029091F702019709F084C03D
:10107000C091F302C0931802C11183C0C090130243
:10108000D0901402E0901502F090160280911702A1
:101090008823C9F0809112028B3209F0E7C2809157
:1010A0000E0290910F02A0911002B09111028C0DCE
:1010B0009D1DAE1DBF1D80930A0290930B02A0934D
:1010C0000C02B0930D02E1E08091D2028111E0E0C8
:1010D000E195F0E0E154FD4F848980680E94E403CB
:1010E000C701B6010E94BB0441E0609112028FEB80
:1010F00092E00E94910360910E0270910F02809124
:101100001002909111020E94BB0480911702882363
:1011100081F067E072E08FEB92E00E9499046091A9
:101120000A0270910B0280910C0290910D020E94B4
:10113000BB04E091D202E23008F0DAC2E150F0E004
:10114000E154FD4F848980680E94E40360910A02A3
:1011500070910B0280910C0290910D020E94BB04D1
:101160008114910409F44ACE0E94EB01882309F40A
:101170003ECE0E9400003BCE109243031092180214
:101180007DCF0E94EA03C334F1F485E691E00E942A
:10119000A80410920E0210920F02109210021092E8
:1011A0001102109213021092140210921502109262
:1011B000160210920A0210920B0210920C02109268
:1011C0000D0210921702809118028133F1F483E727
:1011D00091E00E94A80420910A0230910B024091F4
:1011E0000C0250910D02211531054105510509F000
:1011F000A4C121E030E040E050E020930A023093A7
:101200000B0240930C0250930D028091180284331C
:10121000F1F48CE791E00E94A80420910A02309139
:101220000B0240910C0250910D0221153105410530
:10123000510509F093C184E090E0A0E0B0E0809314
:101240000A0290930B02A0930C02B0930D028091BE
:1012500018028733F1F485E891E00E94A8042091F8
:101260000A0230910B0240910C0250910D0221159F
:1012700031054105510509F082C127E030E040E029
:1012800050E020930A0230930B0240930C025093DB
:101290000D02809118028033E9F48EE891E00E94FB
:1012A000A80420910A0230910B0240910C02509147
:1012B0000D02211531054105510561F0AAE0B0E0AC
:1012C0000E94CD0B60930A0270930B0280930C0274
:1012D00090930D02809118028233F1F487E991E036
:1012E0000E94A80420910A0230910B0240910C0246
:1012F00050910D02211531054105510509F050C1EC
:1013000082E090E0A0E0B0E080930A0290930B02AC
:10131000A0930C02B0930D02809118028533D1F492
:1013200080EA91E00E94A80420910A0230910B0209
:1013300040910C0250910D022115310541055105D6
:1013400009F03FC140920A0250920B0260920C02D7
:1013500070920D02809118028833F1F489EA91E0CD
:101360000E94A80420910A0230910B0240910C02C5
:1013700050910D02211531054105510509F032C189
:1013800028E030E040E050E020930A0230930B0266
:1013900040930C0250930D02809118028D33B9F4E2
:1013A00082EB91E00E94A80480910A0290910B02C6
:1013B000A0910C02B0910D0280930E0290930F0247
:1013C000A0931002B093110281E0809317028091E4
:1013D00018028333F1F48FEB91E00E94A80420916E
:1013E0000A0230910B0240910C0250910D0221151E
:1013F00031054105510509F006C183E090E0A0E008
:10140000B0E080930A0290930B02A0930C02B09379
:101410000D02809118028633F1F488EC91E00E946D
:10142000A80420910A0230910B0240910C025091C5
:101430000D02211531054105510509F0F5C026E0E1
:1014400030E040E050E020930A0230930B024093DA
:101450000C0250930D02809118028933F1F481ED52
:1014600091E00E94A80420910A0230910B02409161
:101470000C0250910D02211531054105510509F06D
:10148000E4C089E090E0A0E0B0E080930A0290938D
:101490000B02A0930C02B0930D02C09118028C2F86
:1014A0008D7F8D3229F086ED8C0F823008F0E6CDED
:1014B00080910A0290910B02A0910C02B0910D0252
:1014C0008093130290931402A0931502B093160216
:1014D00010920A0210920B0210920C0210920D024E
:1014E000CB3231F48AED91E00E94A804C09312023D
:1014F000C0911802CD3231F483EE91E00E94A8042D
:10150000C0931202C0911802CA3231F48FEE91E0FA
:101510000E94A804C0931202C0911802CF3231F485
:101520008EEF91E00E94A804C093120264E670E07E
:1015300080E090E00E94E002A1CDAAE0B0E00E942D
:10154000CD0B6F5F7F4F8F4F9F4F60930A02709359
:101550000B0280930C0290930D0257CEAAE0B0E0EC
:101560000E94CD0B6C5F7F4F8F4F9F4F60930A029D
:1015700070930B0280930C0290930D0268CEAAE048
:10158000B0E00E94CD0B695F7F4F8F4F9F4F6093FC
:101590000A0270930B0280930C0290930D0279CE95
:1015A000AAE0B0E00E94CD0B6E5F7F4F8F4F9F4F40
:1015B00060930A0270930B0280930C0290930D02C9
:1015C000ABCEAAE0B0E00E94CD0B6B5F7F4F8F4F98
:1015D0009F4F60930A0270930B0280930C029093CA
:1015E0000D02B8CEAAE0B0E00E94CD0B685F7F4F3D
:1015F0008F4F9F4F60930A0270930B0280930C02EF
:1016000090930D02C9CEAAE0B0E00E94CD0B6D5FB1
:101610007F4F8F4F9F4F60930A0270930B0280930E
:101620000C0290930D02F5CEAAE0B0E00E94CD0B23
:101630006A5F7F4F8F4F9F4F60930A0270930B0238
:1016400080930C0290930D0206CFAAE0B0E00E94B6
:10165000CD0B675F7F4F8F4F9F4F60930A02709350
:101660000B0280930C0290930D0217CF8D3289F4F8
:1016700080910E0290910F02A0911002B091110280
:10168000A7019601281B390B4A0B5B0BDA01C90134
:1016900012CD8A32A9F420910E0230910F024091AE
:1016A000100250911102C701B6010E947C0B609399
:1016B0000A0270930B0280930C0290930D0203CDEB
:1016C0008F3209F000CD20910E0230910F0240912F
:1016D000100250911102C701B6010E94AE0B209377
:1016E0000A0230930B0240930C0250930D02EBCC94
:1016F000E1E025CD617083CCDB018F939F930E9445
:10170000CD0BBF91AF91A29F800D911DA39F900D16
:10171000B29F900D11240895A1E21A2EAA1BBB1BA3
:10172000FD010DC0AA1FBB1FEE1FFF1FA217B307AD
:10173000E407F50720F0A21BB30BE40BF50B661FC3
:10174000771F881F991F1A9469F760957095809587
:1017500090959B01AC01BD01CF010895052E97FB2B
:101760001EF400940E94C50B57FD07D00E948C0BFD
:1017700007FC03D04EF40C94C50B50954095309562
:1017800021953F4F4F4F5F4F0895909580957095ED
:1017900061957F4F8F4F9F4F08950E94DE0BA59F4D
:1017A000900DB49F900DA49F800D911D112408955C
:1017B000EE0FFF1F0590F491E02D0994A29FB00158
:1017C000B39FC001A39F700D811D1124911DB29F75
:0E17D000700D811D1124911D0895F894FFCF16
:1017DE0009080706050403023132332F3435362A41
:1017EE003738392D43303D2B000000007E011D039C
:1017FE001F01CB0150012E01420100000000930495
:10180E001D034B034A0300000000120316031A03C4
:10181E000D0A00536E65656427732043616C637512
:10182E006C61746F72002D436972737569744469CB
:10183E006765737400427574746F6E2043616E63D6
:10184E00656C00427574746F6E203100427574744D
:10185E006F6E203400427574746F6E2037004275BF
:10186E0074746F6E203000427574746F6E20320087
:10187E00427574746F6E203500427574746F6E20ED
:10188E003800427574746F6E20457175616C00423C
:10189E007574746F6E203300427574746F6E2036DB
:1018AE0000427574746F6E20390041646469746906
:1018BE006F6E005375627472616374696F6E004D62
:1018CE00756C7469706C69636174696F6E004465E0
:0A18DE00766573696F6E00203D000F
:00000001FF
