:100000000C945C000C946E000C946E000C946E00CA
:100010000C946E000C946E000C946E000C946E00A8
:100020000C946E000C946E000C946E000C946E0098
:100030000C946E000C946E000C946E000C946E0088
:100040000C94F6010C946E000C946E000C946E00EF
:100050000C946E000C946E000C946E000C946E0068
:100060000C946E000C946E00000000080002010069
:100070000003040700000000000000000000000072
:10008000250028002B0000000000240027002A0083
:10009000040404040404040402020202020203032E
:1000A0000303030301020408102040800102040836
:1000B000102001020408102011241FBECFEFD8E049
:1000C000DEBFCDBF21E0A0E0B1E001C01D92A930AC
:1000D000B207E1F70E9440020C9450030C94000018
:1000E00090E0FC01EC55FF4F249180579F4FFC019D
:1000F0008491882399F090E0880F991FFC01EA57BA
:10010000FF4FA591B491FC01E458FF4F8591949164
:100110008FB7F894EC91E22BEC938FBF089590E0A9
:10012000FC01E859FF4F2491FC01EC55FF4F34913D
:10013000FC01E057FF4FE491EE23C9F0222339F090
:10014000233001F1A8F4213019F1223029F1F0E037
:10015000EE0FFF1FE458FF4FA591B4918FB7F894AD
:10016000EC91611126C030953E233C938FBF0895DA
:100170002730A9F02830C9F0243049F78091800059
:100180008F7D03C0809180008F7780938000DFCFC8
:1001900084B58F7784BDDBCF84B58F7DFBCF809115
:1001A000B0008F778093B000D2CF8091B0008F7D68
:1001B000F9CF3E2BDACF3FB7F894809105019091AB
:1001C0000601A0910701B091080126B5A89B05C0C2
:1001D0002F3F19F00196A11DB11D3FBFBA2FA92FC6
:1001E000982F8827BC01CD01620F711D811D911DC3
:1001F00042E0660F771F881F991F4A95D1F708952F
:100200008F929F92AF92BF92CF92DF92EF92FF9226
:100210006B017C010E94DB004B015C01C114D10425
:10022000E104F104B9F00E94DB00681979098A0938
:100230009B09683E73408105910580F321E0C21A55
:10024000D108E108F10888EE880E83E0981EA11C11
:10025000B11CE4CFFF90EF90DF90CF90BF90AF90B4
:100260009F908F900895AF92CF92EF920F93CF937C
:10027000DF93362FD42FC22F01978930910570F468
:10028000FC01EB5BFE4F0C94360370018601A0016C
:10029000B201C401D201E801EA01F00161E0832F5B
:1002A0000E948F0061E08D2F0E948F0061E08C2FF3
:1002B0000E948F0061E0802F0E948F0061E08E2DF0
:1002C0000E948F0061E08C2D0E948F0060E08A2DDB
:1002D000DF91CF910F91EF90CF90AF900C948F0062
:1002E00060E0832F0E948F0061E08D2F0E948F00BD
:1002F00061E08C2F0E948F0060E0802F0E948F00B1
:1003000060E08E2D0E948F0060E0DDCF61E0832FE2
:100310000E948F0061E08D2F0E948F0060E08C2F83
:100320000E948F0061E0802F0E948F0061E08E2D7F
:100330000E948F0060E08C2D0E948F0061E0C7CF8B
:1003400061E0832F0E948F0061E08D2F0E948F005B
:1003500061E08C2F0E948F0061E0802F0E948F004F
:1003600060E0E5CF60E0832F0E948F0061E08D2F79
:100370000E948F0061E08C2F0E948F0060E0802F30
:100380000E948F0060E01FC061E0832F0E948F00F9
:1003900060E08D2F0E948F0061E08C2F0E948F0003
:1003A00061E0EDCF61E0832F0E948F0060E08D2F30
:1003B0000E948F0061E08C2F0E948F0061E0802FEF
:1003C0000E948F0061E08E2D0E948F0061E0B3CF0C
:1003D00061E087CF61E0832F0E948F0061E0E7CF6B
:1003E00061E0832F0E948F0061E0D3CF1F920F92B4
:1003F0000FB60F9211242F933F938F939F93AF9338
:10040000BF938091010190910201A0910301B091ED
:1004100004013091000123E0230F2D3758F5019698
:10042000A11DB11D20930001809301019093020151
:10043000A0930301B09304018091050190910601FE
:10044000A0910701B09108010196A11DB11D8093F3
:10045000050190930601A0930701B0930801BF9195
:10046000AF919F918F913F912F910F900FBE0F9061
:100470001F90189526E8230F0296A11DB11DD2CF1B
:10048000789484B5826084BD84B5816084BD85B56F
:10049000826085BD85B5816085BD80916E0081607B
:1004A00080936E0010928100809181008260809321
:1004B0008100809181008160809381008091800023
:1004C0008160809380008091B10084608093B1004E
:1004D0008091B00081608093B00080917A00846048
:1004E00080937A0080917A00826080937A00809174
:1004F0007A00816080937A0080917A00806880938E
:100500007A001092C1008DE00E9470008CE00E9481
:1005100070008BE00E9470008AE00E94700089E009
:100520000E94700088E00E94700087E00E947000C6
:1005300086E00E94700085E00E94700084E00E94C6
:10054000700083E00E94700082E00E94700081E0F1
:100550000E94700080E00E947000AAE02A2E312CD8
:10056000B0E06B2EB0E07B2ED0E0C0E0CE01B10158
:100570000E9422032B014C0187E0A82EB12C98E0A9
:10058000C92ED12C29E0E22EF12C0AE010E02BE05C
:1005900030E04CE050E06DE070E0C2010E943301B9
:1005A000B12CA12CCC24C394D12C42E0E42EF12C0C
:1005B00003E010E024E030E045E050E066E070E069
:1005C000C2010E94330168EE73E080E090E00E9477
:1005D000000157E0A52EB12C68E0C62ED12C79E0A1
:1005E000E72EF12C0AE010E02BE030E04CE050E088
:1005F0006DE070E0C4010E943301B12CA12CCC2429
:10060000C394D12CF2E0EF2EF12C03E010E024E0B3
:1006100030E045E050E066E070E0C4010E94330144
:1006200068EE73E080E090E00E9400012196C436FD
:10063000D10509F09BCF6114710409F495CF0E9494
:10064000000092CF97FB072E16F4009407D077FD99
:1006500009D00E943C0307FC05D03EF4909581959B
:100660009F4F0895709561957F4F0895EE0FFF1F7E
:100670000590F491E02D0994AA1BBB1B51E107C022
:10068000AA1FBB1FA617B70710F0A61BB70B881F22
:10069000991F5A95A9F780959095BC01CD010895B1
:0406A000F894FFCFFC
:00000001FF
